:100000000C942A000C9449000C9447000C9447006F
:100010000C9447000C9447000C9447000C94470044
:100020000C9447000C9447000C9447000C94470034
:100030000C9447000C9447000C9447000C94470024
:100040000C9447000C9447000C9447000C94470014
:100050000C94470011241FBECFE5D8E0DEBFCDBF12
:1000600010E0A0E6B0E0EEE6FCE002C005900D92E4
:10007000A636B107D9F720E0A6E6B0E001C01D9290
:10008000AC36B207E1F70E9467020C9435060C9477
:1000900000001F920F920FB60F9211242F933F93DF
:1000A0004F935F936F937F938F939F93AF93BF9380
:1000B000EF93FF9384EF91E00E94B10466E670E055
:1000C00080E690E00E94DB03809166008823D9F1EE
:1000D000D1F10E94A60181508230E8F40E9498017B
:1000E0000E947A010E94BC010E949F010E9481012E
:1000F0000E9488010E947A0188E893E10E94B1047D
:100100000E9491010E94BC010E943E020E94AD0427
:100110000E94630218C00E94A601811114C00E94AF
:1001200081010E9488010E947A0188E893E10E947F
:10013000B1040E9491010E94BC010E943E020E94F3
:10014000AD040E946302FF91EF91BF91AF919F9127
:100150008F917F916F915F914F913F912F910F9070
:100160000FBE0F901F90189562E086E00E946E020D
:100170000E944B01089586E00E94B8020E9400028E
:10018000FACFCF93DF931F92CDB7DEB70097B1F0D0
:10019000FC018081282F2695269526952370220F15
:1001A000220F8770982F9295907F822F8160892BE4
:1001B0008983CE0101960E94710401C080E00F90F6
:1001C000DF91CF910895CF93DF931F92CDB7DEB724
:1001D0000097B9F0FC018081282F26952695269559
:1001E0002370220F220F8770982F9295907F822F75
:1001F0008160892B898361E0CE0101960E945603BC
:1002000001C080E00F90DF91CF910895CF93DF93ED
:100210001F92CDB7DEB70097B9F0FC018081282F7F
:100220002695269526952370220F220F8770982FEA
:100230009295907F822F8160892B898360E0CE0127
:1002400001960E94560301C080E00F90DF91CF918C
:100250000895CF93DF931F92CDB7DEB70097B1F02B
:10026000FC018081282F2695269526952370220F44
:10027000220F8770982F9295907F822F8160892B13
:100280008983CE0101960E94290401C080E00F906D
:10029000DF91CF91089585E690E00E94C1008093A0
:1002A0006A0084E690E00E94C10080936A0087E6BD
:1002B00090E00E94C10080936A0083E690E00E9473
:1002C000C10080936A0082E690E00E94C1008093A2
:1002D0006A0081E690E00E94C10080936A00089560
:1002E00082E08093690087E690E00E94E3008093BB
:1002F0006A00089587E690E00E94060180936A00F4
:10030000089581E690E00E94E30080936A000895DA
:100310001092690085E690E00E94E30080936A00F5
:10032000089585E690E00E94060180936A00089592
:1003300083E690E00E94E30080936A00089583E6DC
:1003400090E00E94060180936A0008958091690000
:10035000089585E690E00E94060180936A0084E695
:1003600090E00E94060180936A0087E690E00E9478
:10037000060180936A000895CF9381E0809369001D
:10038000C1E014C080916B00813019F40E94A90172
:1003900017C084E690E00E94290182E690E00E9466
:1003A000290184EF91E00E94B104CF5FCB3050F37C
:1003B00084E690E00E94060182E690E00E94060139
:1003C000CF910895CF9381E080936900C1E010C080
:1003D00080916B00813019F40E94A9010FC084E65E
:1003E00090E00E94290184EF91E00E94B104CF5F68
:1003F000CB3070F384E690E00E940601CF9108951F
:1004000038C00E94700188E893E10E94B104809195
:100410006B00813029F40E94A90110926B000895AD
:100420000E947A010E94E20180916B00813029F4E0
:100430000E94A90110926B0008950E94880188E82B
:1004400093E10E94B10480916B00813029F40E94F5
:10045000A90110926B0008950E9491010E94E2018F
:1004600080916B00813029F40E94A90110926B00E9
:10047000089580916B00882321F2089585E690E02D
:100480000E94060180936A0084E690E00E940601C3
:1004900080936A0087E690E00E94060180936A00DC
:1004A00083E690E00E94060180936A0082E690E075
:1004B0000E94060180936A0081E690E00E94060196
:1004C00080936A00089581E080936B0008950E94F4
:1004D000B4000E94BB0080E090E00895EF92FF928C
:1004E0001F93CF93DF931F92CDB7DEB7162F9FB721
:1004F00090689FBF863029F0873071F0853089F58C
:1005000018C08EE28983CE0101960E94710415BF46
:100510008BB780648BBF25C08EE38983CE010196A3
:100520000E947104110F110F15BF8BB780688BBF2C
:1005300018C086E28983CE0101960E94710484B7B7
:1005400010FBEE24E0F8F12C0024F694E7940794D5
:10055000F694E7940794FE2CE02CE82AE4BE8BB7CF
:100560008BBF0F90DF91CF911F91FF90EF90089577
:10057000811107C08FB780688FBF8BB780648BBF36
:100580000895813031F48FB780688FBF8BB78BBFF0
:100590000895823029F48FB780688FBF8BB78BBFE7
:1005A0000895009709F47EC0FC01208122952F70E8
:1005B00027708081869586958370813011F130F0A7
:1005C0008230D1F1833009F452C06EC0613061F4E1
:1005D0003AB381E090E002C0880F991F2A95E2F7B4
:1005E000832B8ABB81E008953AB381E090E002C09A
:1005F000880F991F2A95E2F7809583238ABB81E0B3
:100600000895613061F437B381E090E002C0880F53
:10061000991F2A95E2F7832B87BB81E0089537B3B2
:1006200081E090E002C0880F991F2A95E2F780953B
:10063000832387BB81E00895613061F434B381E0A6
:1006400090E002C0880F991F2A95E2F7832B84BBA4
:1006500081E0089534B381E090E002C0880F991FD3
:100660002A95E2F78095832384BB81E00895613069
:1006700061F431B381E090E002C0880F991F2A95A0
:10068000E2F7832B81BB81E0089531B381E090E0F4
:1006900002C0880F991F2A95E2F78095832381BBBA
:1006A00081E0089580E0089580E00895009709F4BE
:1006B0007EC0FC01208122952F7027708081869555
:1006C00086958370813011F130F08230D1F1833022
:1006D00009F452C06EC0613061F43BB381E090E038
:1006E00002C0880F991F2A95E2F7832B8BBB81E00C
:1006F00008953BB381E090E002C0880F991F2A95CE
:10070000E2F7809583238BBB81E00895613061F42B
:1007100038B381E090E002C0880F991F2A95E2F774
:10072000832B88BB81E0089538B381E090E002C05C
:10073000880F991F2A95E2F78095832388BB81E073
:100740000895613061F435B381E090E002C0880F14
:10075000991F2A95E2F7832B85BB81E0089535B375
:1007600081E090E002C0880F991F2A95E2F78095FA
:10077000832385BB81E00895613061F432B381E069
:1007800090E002C0880F991F2A95E2F7832B82BB65
:1007900081E0089532B381E090E002C0880F991F94
:1007A0002A95E2F78095832382BB81E0089580E05B
:1007B000089580E00895009709F445C0611571051A
:1007C00009F443C0FC01208122952F70277080819D
:1007D000869586958370813091F028F08230D9F02B
:1007E000833029F134C089B390E002C09595879594
:1007F0002A95E2F78170FB01808381E0089586B33A
:1008000090E002C0959587952A95E2F78170FB01EB
:10081000808381E0089583B390E002C09595879529
:100820002A95E2F78170FB01808381E0089580B30F
:1008300090E002C0959587952A95E2F78170FB01BB
:10084000808381E0089580E0089580E0089580E04D
:100850000895009709F441C0FC01208122952F7072
:1008600027708081869586958370813091F028F07D
:100870008230D9F0833029F132C03BB381E090E07F
:1008800002C0880F991F2A95E2F783278BBB81E06E
:10089000089538B381E090E002C0880F991F2A952F
:1008A000E2F7832788BB81E0089535B381E090E0CB
:1008B00002C0880F991F2A95E2F7832785BB81E044
:1008C000089532B381E090E002C0880F991F2A9505
:1008D000E2F7832782BB81E0089580E0089580E0FD
:1008E0000895CF93DF93009759F0EC0161E00E94E7
:1008F000D102688166956170CE010E94560301C0E5
:1009000080E0DF91CF91089562BF83BF089582BFD9
:100910000895FF920F931F93CF93DF938C01F62ED0
:10092000C0E0D0E011C080916800813019F41092CD
:1009300068000DC008B600FEFDCF21968F2D0E94E5
:10094000870488B7816088BFC017D10764F3DF913F
:10095000CF911F910F91FF90089581E080936800DF
:1009600008958F929F92AF92BF92CF92DF92EF92B3
:10097000FF92CF93BC01990F880B990B0E94A90598
:1009800020E030E04AE754E40E94FF044B015C01A0
:100990002DEB37E346E85CE30E94FF040E947105FB
:1009A0006B017C012DEB37E346E85EE3C501B40142
:1009B0000E94FF044B015C01B6010D2C000C880B5A
:1009C000990B0E94A9059B01AC01C501B4010E94CD
:1009D000FF040E947805C62FC1956C2F83E00E940A
:1009E00084046C2FC6010E948904CF91FF90EF9080
:1009F000DF90CF90BF90AF909F908F9008950E940E
:100A000013050C94FB050E94F40558F00E94ED05B7
:100A100040F029F45F3F29F00C94E40551110C9447
:100A20002F060C94EA050E940C0668F39923B1F393
:100A3000552391F3951B550BBB27AA276217730704
:100A4000840738F09F5F5F4F220F331F441FAA1F98
:100A5000A9F335D00E2E3AF0E0E832D09150504054
:100A6000E695001CCAF72BD0FE2F29D0660F771F02
:100A7000881FBB1F261737074807AB07B0E809F0E8
:100A8000BB0B802DBF01FF2793585F4F3AF09E3F6D
:100A9000510578F00C94E4050C942F065F3FE4F3C5
:100AA000983ED4F3869577956795B795F7959F5FB0
:100AB000C9F7880F911D9695879597F90895E1E0FC
:100AC000660F771F881FBB1F621773078407BA075B
:100AD00020F0621B730B840BBA0BEE1F88F7E095B6
:100AE00008950E9478056894B1110C942F0608951A
:100AF0000E94140688F09F5798F0B92F9927B75194
:100B0000B0F0E1F0660F771F881F991F1AF0BA95B1
:100B1000C9F714C0B13091F00E942E06B1E00895DB
:100B20000C942E06672F782F8827B85F39F0B93FCD
:100B3000CCF3869577956795B395D9F73EF4909564
:100B40008095709561957F4F8F4F9F4F0895E894E2
:100B500009C097FB3EF490958095709561957F4F05
:100B60008F4F9F4F9923A9F0F92F96E9BB279395B3
:100B7000F695879577956795B795F111F8CFFAF4C3
:100B8000BB0F11F460FF1BC06F5F7F4F8F4F9F4FF4
:100B900016C0882311F096E911C0772321F09EE852
:100BA000872F762F05C0662371F096E8862F70E0B8
:100BB00060E02AF09A95660F771F881FDAF7880F92
:100BC0009695879597F9089597F99F6780E870E063
:100BD00060E008959FEF80EC089500240A941616B3
:100BE000170618060906089500240A94121613061B
:100BF000140605060895092E0394000C11F48823A9
:100C000052F0BB0F40F4BF2B11F460FF04C06F5FC4
:100C10007F4F8F4F9F4F089557FD9058440F551F9A
:100C200059F05F3F71F04795880F97FB991F61F06E
:100C30009F3F79F087950895121613061406551FE5
:100C4000F2CF4695F1DF08C0161617061806991F51
:100C5000F1CF86957105610508940895E894BB2746
:0E0C600066277727CB0197F90895F894FFCF08
:060C6E002C08090A010236
:00000001FF
